:020000040800F2
:1000000000800020B52B0008011800080318000824
:10001000051800080718000809180008000000006B
:100020000000000000000000000000000B180008A5
:100030000D180008000000000F1800081118000833
:10004000052C0008052C000815180008052C0008D0
:10005000052C0008052C0008251800082F1800089A
:10006000052C0008052C0008052C0008052C0008AC
:10007000052C0008052C0008052C0008391800087C
:10008000052C0008052C0008052C0008052C00088C
:1000900000000000052C000849180008052C000885
:1000A00055180008052C0008052C0008052C000830
:1000B000052C0008052C0008052C0008052C00085C
:1000C000052C0008052C0008052C0008052C00084C
:1000D000052C00086D180008052C0008052C0008E8
:1000E000052C0008052C00087D180008052C0008C8
:1000F000052C00080000000000000000052C00088E
:10010000052C0008052C00088D180008052C000897
:10011000052C0008052C0008052C0008052C0008FB
:10012000052C0008052C0008052C0008052C0008EB
:08013000052C0008052C000855
:1001380010B5054C237833B9044B13B10448AFF319
:1001480000800123237010BD200100200000000062
:10015800483A010808B5034B1BB103490348AFF3FC
:10016800008008BD0000000024010020483A010872
:10017800034613F8012B002AFBD1181A01387047DF
:1001880081F0004102E000BF83F0004330B54FEA40
:1001980041044FEA430594EA050F08BF90EA020FAD
:1001A8001FBF54EA000C55EA020C7FEA645C7FEA40
:1001B800655C00F0E2804FEA5454D4EB5555B8BF63
:1001C8006D420CDD2C4480EA020281EA030382EAD4
:1001D800000083EA010180EA020281EA0303362D66
:1001E80088BF30BD11F0004F4FEA01314FF4801C39
:1001F8004CEA113102D0404261EB410113F0004F4B
:100208004FEA03334CEA133302D0524263EB430301
:1002180094EA050F00F0A780A4F10104D5F1200E9F
:100228000DDB02FA0EFC22FA05F2801841F10001FA
:1002380003FA0EF2801843FA05F359410EE0A5F1CE
:1002480020050EF1200E012A03FA0EFC28BF4CF0FF
:10025800020C43FA05F3C01851EBE37101F00045B5
:1002680007D54FF0000EDCF1000C7EEB00006EEBC2
:100278000101B1F5801F1BD3B1F5001F0CD349084C
:100288005FEA30004FEA3C0C04F101044FEA4452A3
:1002980012F5800F80F09A80BCF1004F08BF5FEA2A
:1002A800500C50F1000041EB045141EA050130BD0A
:1002B8005FEA4C0C404141EB0101013C28BFB1F51C
:1002C800801FE9D291F0000F04BF01460020B1FA67
:1002D80081F308BF2033A3F10B03B3F120020CDA3A
:1002E8000C3208DD02F1140CC2F10C0201FA0CF018
:1002F80021FA02F10CE002F11402D8BFC2F1200C7D
:1003080001FA02F120FA0CFCDCBF41EA0C01904032
:10031800E41AA2BF01EB0451294330BD6FEA04047B
:100328001F3C1CDA0C340EDC04F11404C4F1200266
:1003380020FA04F001FA02F340EA030021FA04F378
:1003480045EA030130BDC4F10C04C4F1200220FACF
:1003580002F001FA04F340EA0300294630BD21FA0D
:1003680004F0294630BD94F0000F83F4801306BFD3
:1003780081F480110134013D4EE77FEA645C18BFC7
:100388007FEA655C29D094EA050F08BF90EA020F5E
:1003980005D054EA000C04BF1946104630BD91EA56
:1003A800030F1EBF0021002030BD5FEA545C05D159
:1003B8004000494128BF41F0004130BD14F5800498
:1003C8003CBF01F5801130BD01F0004545F0FE410C
:1003D80041F470014FF0000030BD7FEA645C1ABF41
:1003E800194610467FEA655C1CBF0B46024650EA78
:1003F800013406BF52EA033591EA030F41F40021A4
:1004080030BD00BF90F0000F04BF0021704730B529
:100418004FF4806404F132044FF000054FF00001FE
:1004280050E700BF90F0000F04BF0021704730B5BF
:100438004FF4806404F1320410F0004548BF404294
:100448004FF000013EE700BF42004FEAE2014FEAE9
:1004580031014FEA02701FBF12F07F4393F07F4FC4
:1004680081F06051704732F07F4208BF704793F0C7
:100478007F4F04BF41F40021704730B54FF46074DA
:1004880001F0004521F000411CE700BF50EA0102DD
:1004980008BF704730B54FF000050AE050EA010286
:1004A80008BF704730B511F0004502D5404261EBF6
:1004B80041014FF4806404F132045FEA915C3FF437
:1004C800D8AE4FF003025FEADC0C18BF03325FEAD4
:1004D800DC0C18BF033202EBDC02C2F1200300FA85
:1004E80003FC20FA02F001FA03FE40EA0E0021FAAA
:1004F80002F11444BDE600BF4FF0FF3C06E000BF28
:100508004FF0010C02E000BF4FF0010C4DF804CD94
:100518004FEA410C7FEA6C5C4FEA430C18BF7FEA54
:100528006C5C1BD001B050EA410C0CBF52EA430C82
:1005380091EA030F02BF90EA020F0020704710F102
:10054800000F91EA030F58BF994208BF90422CBF91
:10055800D8176FEAE37040F0010070474FEA410C8A
:100568007FEA6C5C02D150EA013C07D14FEA430CA8
:100578007FEA6C5CD6D152EA033CD3D05DF8040B19
:10058800704700BF8446104662468C46194663464B
:1005980000E000BF01B5FFF7B7FF002848BF10F122
:1005A800000F01BD4DF808EDFFF7F4FF0CBF012067
:1005B80000205DF808FB00BF4DF808EDFFF7EAFFE3
:1005C80034BF012000205DF808FB00BF4DF808ED9E
:1005D800FFF7E0FF94BF012000205DF808FB00BF93
:1005E8004DF808EDFFF7CEFF94BF012000205DF81D
:1005F80008FB00BF4DF808EDFFF7C4FF34BF01202A
:1006080000205DF808FB00BF4FEA410212F5001216
:1006180015D211D56FF47873B3EB625212D94FEA41
:10062800C12343F0004343EA505311F0004F23FA2B
:1006380002F018BF404270474FF00000704750EA80
:10064800013005D111F0004008BF6FF0004070473D
:100658004FF00000704700BF80F0004002E000BF8C
:1006680081F0004142001FBF5FEA410392EA030F95
:100678007FEA226C7FEA236C6AD04FEA1262D2EBDF
:100688001363C1BFD218414048404140B8BF5B42E4
:10069800192B88BF704710F0004F40F4000020F07D
:1006A8007F4018BF404211F0004F41F4000121F093
:1006B8007F4118BF494292EA030F3FD0A2F10102DD
:1006C80041FA03FC10EB0C00C3F1200301FA03F11B
:1006D80000F0004302D5494260EB4000B0F5000F3E
:1006E80013D3B0F1807F06D340084FEA310102F1FD
:1006F8000102FE2A51D2B1F1004F40EBC25008BFAF
:1007080020F0010040EA03007047490040EB000078
:10071800013A28BFB0F5000FEDD2B0FA80FCACF179
:10072800080CB2EB0C0200FA0CF0AABF00EBC250A6
:1007380052421843BCBFD0401843704792F0000F94
:1007480081F4000106BF80F400000132013BB5E7E7
:100758004FEA41037FEA226C18BF7FEA236C21D05D
:1007680092EA030F04D092F0000F08BF08467047C2
:1007780090EA010F1CBF0020704712F07F4F04D190
:10078800400028BF40F00040704712F100723CBFA3
:1007980000F50000704700F0004343F0FE4040F4CD
:1007A800000070477FEA226216BF08467FEA23638B
:1007B8000146420206BF5FEA412390EA010F40F476
:1007C800800070474FF0000304E000BF10F00043C2
:1007D80048BF40425FEA000C08BF704743F09643A9
:1007E80001464FF000001CE050EA010208BF7047C4
:1007F8004FF000030AE000BF50EA010208BF70474B
:1008080011F0004302D5404261EB41015FEA010C5F
:1008180002BF84460146002043F0B64308BFA3F157
:100828008053A3F50003BCFA8CF2083AA3EBC25339
:1008380010DB01FA02FC634400FA02FCC2F1200258
:10084800BCF1004F20FA02F243EB020008BF20F08F
:100858000100704702F1200201FA02FCC2F12002F5
:1008680050EA4C0021FA02F243EB020008BF20EAEA
:10087800DC7070474FF0FF0C1CEAD0521EBF1CEA18
:10088800D15392EA0C0F93EA0C0F6FD01A4480EA06
:10089800010C400218BF5FEA41211ED04FF00063EF
:1008A80043EA501043EA5111A0FB01310CF000401B
:1008B800B1F5000F3EBF490041EAD3715B0040EA41
:1008C800010062F17F02FD2A1DD8B3F1004F40EB11
:1008D800C25008BF20F00100704790F0000F0CF0E4
:1008E800004C08BF49024CEA502040EA51207F3AA8
:1008F800C2BFD2F1FF0340EAC250704740F4000083
:100908004FF00003013A5DDC12F1190FDCBF00F073
:1009180000407047C2F10002410021FA02F1C2F121
:10092800200200FA02FC5FEA310040F1000053EABD
:100938004C0308BF20EADC70704792F0000F00F00B
:10094800004C02BF400010F4000F013AF9D040EA11
:100958000C0093F0000F01F0004C02BF490011F4A5
:10096800000F013BF9D041EA0C018FE70CEAD153A3
:1009780092EA0C0F18BF93EA0C0F0AD030F0004C23
:1009880018BF31F0004CD8D180EA010000F00040D7
:10099800704790F0000F17BF90F0004F084691F095
:1009A800000F91F0004F14D092EA0C0F01D14202CF
:1009B8000FD193EA0C0F03D14B0218BF084608D198
:1009C80080EA010000F0004040F0FE4040F40000E2
:1009D800704740F0FE4040F4400070474FF0FF0C75
:1009E8001CEAD0521EBF1CEAD15392EA0C0F93EABC
:1009F8000C0F69D0A2EB030280EA010C49024FEA0E
:100A0800402037D04FF0805343EA111143EA1013C6
:100A18000CF000408B4238BF5B0042F17D024FF47E
:100A2800000C8B4224BF5B1A40EA0C00B3EB510F59
:100A380024BFA3EB510340EA5C00B3EB910F24BF42
:100A4800A3EB910340EA9C00B3EBD10F24BFA3EBC7
:100A5800D10340EADC001B0118BF5FEA1C1CE0D18F
:100A6800FD2A3FF650AF8B4240EBC25008BF20F042
:100A7800010070470CF0004C4CEA50207F32C2BF96
:100A8800D2F1FF0340EAC250704740F400004FF033
:100A98000003013A37E792F0000F00F0004C02BF64
:100AA800400010F4000F013AF9D040EA0C0093F02E
:100AB800000F01F0004C02BF490011F4000F013B88
:100AC800F9D041EA0C0195E70CEAD15392EA0C0FF0
:100AD80008D142027FF47DAF93EA0C0F7FF470AF28
:100AE800084676E793EA0C0F04D14B023FF44CAF6B
:100AF80008466EE730F0004C18BF31F0004CCAD100
:100B080030F000427FF45CAF31F000437FF43CAF3B
:100B18005FE700BF4FEA4002B2F1FE4F0FD34FF03C
:100B28009E03B3EB12620DD94FEA002343F0004352
:100B380010F0004F23FA02F018BF404270474FF000
:100B48000000704712F1610F01D1420205D110F087
:100B5800004008BF6FF0004070474FF0000070473A
:100B680042000ED2B2F1FE4F0BD34FF09E03B3EB0F
:100B7800126209D44FEA002343F0004323FA02F03B
:100B880070474FF00000704712F1610F01D1420227
:100B980002D14FF0FF3070474FF00000704700BFA0
:100BA80053B94AB9002908BF00281CBF4FF0FF31CC
:100BB8004FF0FF3000F06AB9ADF1080C6DE904CED2
:100BC80000F006F8DDF804E0DDE9022304B0704720
:100BD8002DE9F047089D0C46002B4ED194468C45D4
:100BE8008646B2FA82F262D94AB1C2F12003914034
:100BF80020FA03F30CFA02FC194300FA02FE4FEA4A
:100C08001C471FFA8CF6B1FBF7F44FEA1E4307FBAB
:100C1800141143EA014304FB06F199420AD91CEB7B
:100C2800030304F1FF3080F01281994240F20F81F2
:100C3800023C6344591A1FFA8EF3B1FBF7F007FB25
:100C4800101143EA014300FB06F69E420AD91CEB49
:100C5800030300F1FF3180F0FC809E4240F2F980EE
:100C6800634402389B1B40EA044000211DB1D34075
:100C78000022C5E90032BDE8F0878B4205D90DB1E5
:100C8800C5E9000100210846F5E7B3FA83F1002918
:100C980046D1A34202D39042C0F0F080861A64EB9A
:100CA80003030120002DE6D0C5E90063E3E7002A2D
:100CB80040F09080A1EB0C044FEA1C481FFA8CF717
:100CC8000121B4FBF8F64FEA1E4308FB164443EA39
:100CD800044307FB06F0984208D91CEB030306F10E
:100CE800FF3402D2984200F2CD8026461C1A1FFA21
:100CF8008EF3B4FBF8F008FB104443EA044300FB0E
:100D080007F79F4208D91CEB030300F1FF3402D216
:100D18009F4200F2B0802046DB1B40EA0640A5E770
:100D2800C1F120068B4022FA06F71F4320FA06FC81
:100D380004FA01F343EA0C03F44000FA01F8380C12
:100D48004FEA1349B4FBF0FE1FFA87FC00FB1E4470
:100D580049EA04440EFB0CF9A14502FA01F20AD94A
:100D68003C190EF1FF3A80F08480A14540F2818061
:100D7800AEF1020E3C44A4EB09041FFA83F9B4FB5C
:100D8800F0F300FB134449EA044403FB0CFCA445BC
:100D980007D93C1903F1FF3067D2A44565D9023B56
:100DA8003C4443EA0E40A0FB0293A4EB0C049C4293
:100DB800CE469C4651D34ED055B1B8EB0E0364EBEA
:100DC8000C0404FA06F6CB401E43CC40C5E9006487
:100DD800002150E7C2F1200320FA03F10CFA02FCCB
:100DE80024FA03F394400C434FEA1C4800FA02FE2D
:100DF8001FFA8CF7B3FBF8F008FB1031230C43EA19
:100E0800014300FB07F1994208D91CEB030300F1E9
:100E1800FF362CD299422AD9023863445B1AA4B20D
:100E2800B3FBF8F108FB113344EA034401FB07F371
:100E3800A34208D91CEB040401F1FF3613D2A342E4
:100E480011D902396444E41A41EA004139E70446F9
:100E5800F0E6084606E7C845AED2B9EB020E63EBEA
:100E6800070C0138A8E73146EDE7034699E7304615
:100E7800D4E7D6467FE7634402384DE70646234663
:100E880008460FE7023E634430E700BF704700BFE3
:100E980008B51348134B03604FF000434360002329
:100EA8008360C360036104224261037643768376DC
:100EB8000122C26180F820304362836280F82C30BE
:100EC8004FF48052026307224263826380F83C3009
:100ED800C36401F0E1FE00B908BD00F03BFBFBE78D
:100EE8003C010020002401400268094B9A4200D0CE
:100EF800704782B04FF0B0431A6E42F400721A661F
:100F08001B6E03F400730193019B02B0704700BF8E
:100F1800002401400268054B9A4200D070474FF008
:100F2800B042136E23F400731366F7E70024014000
:100F380030B585B004460023019302930393FFF76D
:100F4800A7FF164802F0E0FAF8B9019400230293CB
:100F5800039301A9114802F019F8C8B90F4802F023
:100F6800D7F9C0B90D4C4FF0FF31204601F0ACFF66
:100F7800204602F0A9FA204602F005F80546204668
:100F880002F042FA284605B030BD00F0E3FADCE78B
:100F980000F0E0FAE2E700F0DDFAE3E73C010020C8
:100FA800014B024A1A6070473C01002000240140AE
:100FB80008B50D48FFF7BCFFA0B103460B4AB2F8CD
:100FC800AA004FF6FF72904207D040F6E44202FBB7
:100FD80000F0B0FBF3F080B205E00548B0FBF3F099
:100FE80080B200E0002008BD002000B40075FF1F9B
:100FF800D8084C0010B582B00023ADF80630FFF7D2
:10100800D7FF04462148FFF793FF214BB3F8C820C8
:10101800B3F8A8108A421DD000FB04F39B081D48B2
:10102800A0FB0303C1EB5313642000FB03F3521A24
:1010380093FBF2F31E331BB2ADF80630BDF8063051
:101048001BB21B021BB2ADF80630BDF8060000B299
:1010580002B010BD04FB00F00F4BA3FB0023C41A21
:1010680003EB5403DB0A4FF47A7202FB03F3A3F594
:101078003923A3F50C63094A82FB0312DB17C3EB80
:10108800A2231E331BB2ADF80630D7E7001000B01C
:101098000075FF1F9F00EE0901011000AD8BDB6892
:1010A80000B583B04FF0B0439A6C42F004029A64E2
:1010B8009A6C02F004020192019A9A6C42F00102C1
:1010C8009A649B6C03F001030093009B00220221A9
:1010D8000F2002F01FFB0F2002F02CFB03B05DF87D
:1010E80004FB002301E0083008338B420AD242682F
:1010F800D0F800C0B2F1FF3F08BFBCF1FF3FF2D00B
:10110800012070470020704730B108B539B192B25C
:1011180011F04AFF002008BD6FF0050070476FF01E
:101128000500F8E708B502F0BDFD78B9094B9A69E2
:1011380042F040429A614CF2FA321A6102F0CAFD5A
:1011480008B9002008BD6FF00400FBE76FF0040049
:10115800F8E700BF0040005870B584B0002303933F
:10116800002839D00E460446FFF7DCFF054610B1CB
:10117800284604B070BD02F095FD80BB02230093A1
:1011880004F178431748D0F8E015174A02EA81219C
:10119800B3FBF1FC01FB1C33DB0A0193A11901F13C
:1011A80078410139D0F8E00502EA8022B1FBF2F07B
:1011B80002FB1011C3EBD1230133029303A9684644
:1011C80002F05EFE18B1022804D06FF0010502F0AB
:1011D80081FDCDE70125FAE76FF00505C8E76FF057
:1011E8000405C5E70070FF1F00FCFF032DE9F04F61
:1011F80089B003900492002800F0B48083460E461C
:10120800002900F0B38012F0070F40F0B38010F00F
:101218000703059340F0B280FFF784FF019018B1EF
:10122800019809B0BDE8F08F02F03CFD002840F0BD
:10123800A980039C04F17842544BD3F8E035544913
:1012480001EA8321B2FBF1F301FB1322D30A0693CF
:10125800049BE31803F17843013BB3FBF1F001FB76
:101268001033DB0AA3EBD2230133012B07D9C4F3D4
:101278000A09C9F50069DDF818A0079331E0DDF81F
:101288001090F8E7C84637465C46059DCDF808B08B
:10129800454515D205EB070BDBE900232146012064
:1012A80002F066FD002847D120686268E959DBF83A
:1012B80004309A4208BF884244D108340835E7E729
:1012C800DDF808B0019B002B45D1CB444E44049B6C
:1012D800A3EB0909B9F5006F28BF4FF400690AF1BB
:1012E800010A069B079A1344534534D90AF58034FA
:1012F800E40249460398FFF7F4FE0028C2D0254BC4
:10130800186828B34FF400622146FFF7FDFE214B11
:101318001B68CBF30A001FFA89F23146184411F012
:1013280043FE4FF400612046FFF716FFB0B9194B92
:101338001F684FF40068A8E7DDF808B06FF00303F2
:101348000193BFE7DDF808B06FF003030193B9E735
:101358006FF00503019302F0BDFC61E76FF0010334
:101368000193F8E76FF00503019359E76FF0050360
:10137800019355E76FF00503019351E76FF00503FB
:1013880001934DE76FF00403019349E70070FF1FD5
:1013980000FCFF03A0010020014B186000207047EB
:1013A800A0010020B0F1006F0ED310B5094BD3F89F
:1013B800E045094B03EA842303F10063013B9842AB
:1013C80005D8FFF713FF10BD4FF0FF3070474FF0FF
:1013D800FF30F8E70070FF1F00FCFF03B1F1006F5A
:1013E8000ED310B5094BD3F8E045094B03EA842323
:1013F80003F10063013B994205D8FFF785FE10BD54
:101408004FF0FF3070474FF0FF30F8E70070FF1FD4
:1014180000FCFF03B0F1006F0ED308B5094BD3F8F9
:10142800E025094B03EA822303F10063013B98425C
:1014380005D8FFF791FE08BD4FF0FF3070474FF019
:10144800FF30F8E70070FF1F00FCFF032DE9F041B3
:1014580088B00024039404940594069407944FF0EC
:10146800B043DA6C42F00202DA64DA6C02F002028B
:101478000292029ADA6C42F00402DA64DA6C02F040
:1014880004020192019ADA6C42F00102DA64DB6C20
:1014980003F001030093009B264E22464FF43A4185
:1014A800304602F07DFE4FF40A430393012504956C
:1014B80005940223069303A9304602F021FD4FF05C
:1014C8000308CDF80C804FF404170497059503A979
:1014D8004FF0904002F014FD4FF4405303930495ED
:1014E8000594CDF8188003A9304602F009FD402381
:1014F80003930497059503A90F4802F001FD2246BE
:101508002146062002F006F9062002F013F92246C9
:101518002146072002F0FEF8072002F00BF92246C8
:101528002146162002F0F6F8162002F003F908B05A
:10153800BDE8F081000400480008004808B50268CA
:10154800034B9A4200D008BD01F070FBFBE700BFD7
:10155800002C014072B6FEE710B59AB0482200216F
:1015680008A812F0BFF9002401940294039404948B
:1015780005940694079402F02FFE4FF0B042D2F87B
:10158800903023F01803C2F8903002F58062136897
:1015980023F4C06343F400731360136803F4C06357
:1015A8000093009B2423089381230B93012310931A
:1015B8001194B0231293139408A802F0A7FF70B9EE
:1015C8004F230193002302930393049305930793F6
:1015D800022101A803F0CCFA18B91AB010BDFFF720
:1015E800B9FFFFF7B7FF08B501F00AFBFFF7B4FF33
:1015F800FFF72CFF00F09AFD00F09EFDFCE70000CD
:1016080000B58DB02C22002101A812F06BF9194801
:10161800194B03601F2383600023036143618361C7
:101628004FF08042C26103624FF48073436203F05B
:1016380015FEA8B90F4803F055FFA0B9002208927B
:10164800029206924FF0005307934FF480730B9366
:1016580001A9084803F06AFE40B90DB05DF804FB23
:10166800FFF778FFE6E7FFF775FFE7E7FFF772FF99
:10167800F3E700BFA40100200028004010B590B097
:1016880004463822002102A812F02CF922681A4BCD
:101698009A4201D010B010BD4FF4803302934FF43A
:1016A80080730F9302A803F0F1FB08BB4FF0B0431F
:1016B800D3F8902042F40042C3F890209A6D42F487
:1016C80080629A659B6D03F480630193019B0022FD
:1016D8001146022002F01EF8022002F02BF8002228
:1016E80011462A2002F016F82A2002F023F8D1E742
:1016F800FFF730FFDAE700BF002800407047704767
:1017080008B500F065F80120024BC3F8880002F024
:10171800C7FD08BD0004005808B500F063F808BD0F
:1017280008B500F05FF800F0C1FC08BD08B500F08E
:101738004FF80121002002F057FD08BD7047000056
:1017480030B58BB004464FF0B0431A6E42F40062D5
:101758001A661B6E03F400630193019B02A903A898
:1017680003F05AFB03F048FB154AA2FB00239B0C2D
:10177800013B1448144A026040F2E732C2604360F9
:1017880000230361836004F0D1FB054610B12846AD
:101798000BB030BD0B4804F08DFA05460028F6D191
:1017A800182001F0C7FF0F2C01D90125EFE700220F
:1017B8002146182001F0AEFF044B1C60E7E700BF8C
:1017C80083DE1B43DC010020002C01407C0000204C
:1017D800034B1A68D36823F00103D360704700BF36
:1017E800DC010020034B1A68D36843F00103D3607F
:1017F800704700BFDC010020FEE7FEE7FEE7FEE7DA
:10180800FEE77047704770477047000008B5024808
:1018180003F094FE08BD00BFA401002008B5012014
:1018280002F0CCFC08BD08B5022002F0C7FC08BDD8
:1018380008B5024802F084F908BD00BF4002002044
:1018480008B5402002F0BAFC08BD000008B50448FD
:1018580004F066FA0021102011F0BAFB08BD00BFA1
:10186800DC01002008B5024804F09CFC08BD00BF5C
:10187800A002002008B5024803F06AFC08BD00BFBA
:10188800A401002008B5024804F010F908BD00BF03
:101898002802002008B505480823036003F084FEE9
:1018A80000B908BDFFF756FEFBE700BF280200207D
:1018B80000B583B04FF0B0435A6E42F001025A6649
:1018C8005B6E03F001030193019B00221146322055
:1018D80001F020FF322001F02DFF03B05DF804FB7A
:1018E8000CB400B583B004AB53F8042B019311F08A
:1018F80035FF03B05DF804EB02B0704730B585B032
:1019080004460D4602A811F09DFCBDF90C30009369
:10191800029B054A10212046FFF7E2FF2046FEF70A
:1019280027FC288005B030BDF43A010810B54FF007
:10193800B042936823F40043936011F007FD01243B
:101948000D4B1C7000F0BAF811F0A4F90B4811F017
:10195800BBF90B4B4FF400421A61022011F0BAF99F
:10196800FFF71EFB00F040F911F0C4FA21462046AB
:1019780011F0E0FA10BD00BF34020020051900087C
:101988000040005808B511F0EBFA08BD08B5FFF79C
:101998000FFB40F6B83398420DD8B0F5E16F0CD381
:1019A800A0F5E160C0EBC0104000054BA3FB003080
:1019B800C0F3C71000E0FE2008BD0020FCE700BF10
:1019C800B5814E1B00B587B0684600F0F1F8019864
:1019D800FFF7A0F800B207B05DF804FB38B504467D
:1019E800184BD3F88035B3F1FF3F13D0C3711A0AEF
:1019F80082711A0C42711B0E0371124BD3F88425A5
:101A0800C270D3F884351A0A82701A0C42701B0E01
:101A1800037038BD01F016F9054601F01FF90544B9
:101A280001F016F92B0EE3712B0CA3712B0A6371CD
:101A38002571030EE370030CA370030A6370207012
:101A4800E7E700BF0070FF1F38B50A4BD3F88035B1
:101A58000360B3F1FF3F00D038BD044601F0F2F84F
:101A6800054601F0F5F8454001F0F8F845402560D5
:101A7800F2E700BF0070FF1F08B50121022011F036
:101A880043FA08BD08B50021022011F03DFA08BD4F
:101A980008B5044B1B780BB9002008BD00F0D0F83E
:101AA800FBE700BF3402002000B583B00190019825
:101AB80000F0ACF903B05DF804FB00002DE9F04339
:101AC8008BB0394AD2F8903043F48043C2F8903052
:101AD80001F0CAF801F0D0F801F0D6F80024059416
:101AE8000694079408940994012306930323089302
:101AF8004FF0B043DA6C42F00202DA64DA6C02F0BA
:101B080002020492049ADA6C42F00202DA64DA6C95
:101B180002F002020392039ADA6C42F00202DA64DB
:101B2800DA6C02F002020292029ADA6C42F00202C5
:101B3800DA64DB6C03F002030193019B4FF48059D4
:101B4800CDF81490194D05A9284602F0D9F94FF49B
:101B58000058CDF8148005A9284602F0D1F94FF4B1
:101B68000047059705A9284602F0CAF94FF4007600
:101B7800059605A9284602F0C3F922464946284693
:101B880002F00EFB22464146284602F009FB224697
:101B98003946284602F004FB22463146284602F020
:101BA800FFFA0BB0BDE8F0830008005800040048B5
:101BB80010B50446FFF71EFA40F30F20FEF706FEA5
:101BC800054BA3606060054B2360054BE360054B44
:101BD8002361002010BD00BF0000484200007A4485
:101BE8000D093E00AB03050000207047064B9868BE
:101BF80001E0054B9868044B9B688342F9D1C043C8
:101C0800024B1860704700BF0028004038020020CF
:101C1800014B1868704700BF38020020064B9868CF
:101C280001E0054B9868044B9B688342F9D1C04397
:101C3800024B1B68C01A7047002800403802002079
:101C4800074B1B7853B1074B986801E0054B986820
:101C5800044B9B688342F9D1C0437047002070470A
:101C68003C020020002800400320704708B50146C8
:101C78004FF47A7200238002890DFEF791FF08BDA8
:101C8800C20E43011B1A62F10002920042EA9372EB
:101C98009B001B1842F10000C00040EA5370C3F3D8
:101CA800D51343EA8050704710B5074B0122DA6517
:101CB800064C4FF48071204603F00AFA4FF0FF33C8
:101CC8002363002010BD00BF00280040A4010020AD
:101CD80008B502460221024803F045FC08BD00BFD2
:101CE800A401002038B50F4B1B780BB1002038BD7C
:101CF8000D4C4FF0FF352563FFF782FCFFF7D4FF4B
:101D08004FF48071204603F0E3F92563204603F081
:101D1800C9FB0020FFF7DCFFFFF768FF014B01223A
:101D28001A70E3E73C020020A401002008B502462F
:101D38000021024803F017FC08BD00BFA4010020E1
:101D480008B502460121024803F00DFC08BD00BF9A
:101D5800A401002010B58CB004462C22002101A853
:101D680011F0C0FDFFF7A0FF0C4B1B681C440023BB
:101D78000893E443029406934FF0005307934FF4FB
:101D880080730B93012201A9054803F0CFFA10B91B
:101D980000200CB010BDFFF7DDFBF9E7380200208A
:101DA800A401002008B50221014803F0E3FB08BDA7
:101DB800A401002038B505460B4B9C6801E00A4B8E
:101DC8009C68094A9268A242F9D1E443FFF7EAFF06
:101DD8002346A40A44EA8054C3F30900FFF750FFDE
:101DE8002880204638BD00BF0028004008B50021E3
:101DF800014803F0BFFB08BDA401002008B501217C
:101E0800014803F0B7FB08BDA401002008B5FFF79F
:101E18002DFF0D4B996801E00B4B99680A4A9268AF
:101E28008A42F9D1C9430AE0074B9B68064A92687F
:101E38009A42F9D1DB435B1A834203D200BF024BBB
:101E48009B68F3E708BD00BF0028004008B511F003
:101E5800A1FB08BD08B5FFF7A5FF0130FFF738FF64
:101E680008BD000008B51748174B03604FF4E1336D
:101E7800436000238360C36003610C224261836175
:101E8800C36103624362836205F044F870B90021BC
:101E98000C4805F0F4F960B900210A4805F014FA75
:101EA80050B9084805F0C7F948B908BDFFF752FB13
:101EB800EDE7FFF74FFBEFE7FFF74CFBF1E7FFF725
:101EC80049FBF2E7A00200200044004030B597B07B
:101ED8000446002111911291139114911591382201
:101EE80003A811F0FFFC22682D4B9A4201D017B0CD
:101EF80030BD022303932B4B059303A802F0C6FFC2
:101F0800002844D14FF0B0439A6D42F400329A65EC
:101F18009A6D02F400320292029ADA6C42F00102DF
:101F2800DA64DB6C03F001030193019B0C2311932A
:101F38000223129300251395032314930723159363
:101F480011A94FF0904001F0DBFF1748174B0360D1
:101F58001423436010238360C560802303614561B7
:101F68008561C561056201F05DFC98B910210E48D4
:101F780001F05AFE88B90C4BE3679C6200220221EB
:101F8800252001F0C7FB252001F0D4FBAFE7FFF7C0
:101F9800E1FAB7E7FFF7DEFAE8E7FFF7DBFAEAE787
:101FA8000044004004000C00400200205800024099
:101FB80002680C4B9A4200D0704710B504464FF0A7
:101FC800B042936D23F4003393650C214FF0904099
:101FD80002F068F8E06F01F097FC252001F0AEFBF5
:101FE80010BD00BF0044004008B5074B1860FFF75C
:101FF80057F8FFF737FF054AD2F8803043F00063FF
:10200800C2F88030002008BD3803002000080058BE
:1020180008B54FF0B0439A6B42F400329A639A6B5A
:1020280022F400329A630448FFF7C2FF0F2001F040
:1020380085FB002008BD00BFA002002008B50A46A5
:102048000146024803F0EAFF002008BDA002002074
:1020580010B582B0124B18604FF40013009302AB16
:1020680013E906000F4805F08EF80E4B1B68DA6975
:1020780012F4803FF9D1DA6912F4800FFBD09A6824
:1020880042F480029A60074C204605F0BDF8012210
:102098000549204605F010F8002002B010BD00BF29
:1020A80034030020A00200203C03002008B50748A4
:1020B80004F030FF20B9064801F0B4FB18B908BD98
:1020C800FFF748FAF7E7FFF745FAF8E7A00200201C
:1020D8004002002008B50268044B9A4200D008BDAF
:1020E800034B1B6800209847F9E700BF00440040F5
:1020F8003803002002680A4B9A4200D0704710B596
:102108000446084B1B682BB1D0F8902012B9012166
:102118000548984701220449204604F0CDFF10BD28
:1021280000440040340300203C03002008B5FFF7BA
:10213800FDFB00F0A7FB08BD08B54FF0FF3010F01D
:102148007BFF08BDBFF34F8F0549CA6802F4E06200
:10215800044B1343CB60BFF34F8F00BFFDE700BFB5
:1021680000ED00E00400FA05024A13680133136029
:10217800704700BFB004002070470000014BD870C2
:10218800704700BF0C000020014B1874704700BF57
:102198000C00002000283FD02DE9F0418CB0034608
:1021A8004278022A0AD0032A2FD01C4B002211465B
:1021B800022010F0E3FD0CB0BDE8F081027CB0F91C
:1021C800121090F914005C7D9D7DDE7D1F7E93F8D2
:1021D80019C093F81AE093F81B80CDF82C80CDF83D
:1021E80028E0CDF824C008970796069505945C6802
:1021F8000494DB680393029001910092084B00223B
:102208001146022010F0BAFDD5E7064B0022114610
:10221800022010F0B3FDCEE7704700BF503B010825
:10222800683B0108DC3B010800B583B0054B1B5C2B
:102238000093054B00221146022010F09FFD03B0C9
:102248005DF804FB183C0108FC3B010808B50128AF
:1022580006D0074B00221146022010F08FFD08BD62
:10226800044B00221146022010F088FDF7E700BF5A
:10227800303C01081C3C010808B50021022010F080
:10228800A7FE024811F026F908BD00BF98040020F7
:1022980008B50021012010F09BFE08BD08B505F027
:1022A800D7FC00B108BD05F031F90128FAD1FFF7D4
:1022B80049FF000010B5094B186010B942F21072BE
:1022C8001A60074C204611F0ABF8044B19682046F9
:1022D80011F046F9204611F0FDF810BD0800002065
:1022E80098040020002842D010B584B00446037832
:1022F8000BB904B010BD01224FF400711C4801F065
:102308004FFF1C4811F0E6F81B4B00221146022033
:1023180010F034FD237C94F90A2094F918100391E5
:1023280002920193E3680093144B002211460320A4
:1023380010F024FD124B00221146032010F01EFD60
:10234800237A012B0CD1637A43B10E4B00930E4BC9
:1023580000221146032010F011FDCAE70B4BF5E7E8
:102368000B4B00221146032010F008FDC1E770470F
:102378000004004870030020503C0108843C010818
:10238800B83C0108443C0108C83C0108483C010825
:10239800DC3C0108002839D010B582B0044690F919
:1023A8000630FBB91A4811F03BF800224FF40061DF
:1023B800184801F0F5FE184B00221146022010F0D3
:1023C800DDFCE379012B06D0144B002211460220D4
:1023D80010F0D4FC0CE0124B00221146022010F041
:1023E800CDFC05E00F4B00221146022010F0C6FC80
:1023F80094F9043094F90520019200930A4B0022C5
:102408001146032010F0BAFC02B010BD704700BF9F
:102418004003002000040048EC3C0108243D01086A
:10242800043D0108443D0108603D010810B50E4B0C
:102438001B78022B13D00D4C00224FF4004120468C
:1024480001F0AEFE00224FF40071204601F0A8FE14
:1024580000224FF40061204601F0A2FE10BD0021C9
:10246800082010F0B5FDE6E77000002000040048E1
:1024780008B500224FF40041014801F091FE08BD63
:102488000004004808B500224FF40071014801F02B
:1024980087FE08BD0004004800296ED070B586B0DC
:1024A80004460D4601224FF40041344801F078FEFD
:1024B800334811F00FF82E78002E42D0002C3FD070
:1024C80026786368002B3CD0022E16D0032E38D114
:1024D8006278012A35D11B78012B06D0022B08D04F
:1024E8007BBB002005F024F82BE0012005F020F844
:1024F80027E0022005F01CF823E06278012A20D1A9
:102508001B7803F001031F4A137063B91E4B0022A6
:102518001146032010F032FC00224FF400611748E6
:1025280001F03EFE0DE0194B00221146032010F089
:1025380025FC01224FF40061104801F031FE00E053
:1025480000262B7C052B01D906B070BD95F9082013
:1025580095F9091095F90A00059004910C4951F86C
:102568002330039302920196EB680093094B0022F3
:102578001146032010F002FCE6E77047000400480B
:1025880058030020880300208C3D0108983D01086D
:102598009C3F0108A43D010838B504460D464FF498
:1025A80000610548FEF736FF00B138BD2A462146CE
:1025B8000148FEF7F7FEF8E700F0030808B50A46F9
:1025C8000149FEF70BFF08BD00F0030838B51E4CA3
:1025D80001224FF40041204601F0E2FD01224FF4B0
:1025E8000071204601F0DCFD01224FF40061204615
:1025F80001F0D6FD154810F013FF05F021FB48B196
:10260800134B00221146022010F0B8FB114810F0BD
:1026180061FF38BD104B00221146022010F0AEFBBE
:102628000E4C012525700E4B00221146022010F099
:10263800A5FB0C4805F08CF92946207804F0D2FF58
:10264800024810F047FFE1E7000400489804002022
:10265800EC3D0108800400200C3E010870000020B9
:10266800203E01080C00002008B505F07DFB10F1A4
:10267800080F03D0B0F1FF3F07D008BD064B00227A
:102688001146022010F07AFBF7E7044B00221146AE
:10269800022010F073FBF0E7403E0108583E0108A5
:1026A800F0B589B0FFF772F9044605F015F890B156
:1026B80000255F4C204610F0B3FE5E4B1B68294690
:1026C8009D4238BF1946204610F04AFF204610F0B8
:1026D80001FF09B0F0BD02A8FFF76AFA0094564B53
:1026E80001220021022010F049FB0398FEF712FA9C
:1026F80000B20090514B01220021022010F03EFB55
:102708004F4B1B6800934F4B01220021022010F011
:1027180035FB4D4C022323704C490498FEF7AAF868
:10272800FEF71EFA85B20398FEF7F4F906B2484997
:102738000298FEF79FF84549FEF750F9FEF710FAA0
:102748006368444A12781A706368C0F307225A70A3
:10275800636898706368DE7063682A0A1A71636830
:102768005D713D4B1B78082B02D0012B00D0D3B9EB
:10277800354A516800238B715168CB7152681372C6
:1027880053720A22304B5A70344B5B7A3BBB00229F
:10279800314BD9782C4804F0BDFF70B310F1060F07
:1027A80033D0002585E7059D069C274E7768FFF7FF
:1027B800EDF8B8717368C5F30742DA717368C5F349
:1027C80007221A725D72C4F307429A72C4F3072291
:1027D800DA721C7300225A739A730F22D2E704F03C
:1027E80095FE0128D3D11D4810F01AFE00224FF49F
:1027F80000611B4801F0D4FCC9E71A4B01220021F3
:10280800104610F0BBFA002553E704F079FE0546A0
:1028180000283FF44EAF144BA3FB00239B09009301
:10282800124B01220021104610F0A8FA41E700BF20
:102838009804002008000020703E01087C3E010832
:10284800B0040020883E010800000020000020415C
:102858000000C842880300200C000020400300202C
:1028680000040048983E0108D34D6210A83E0108B4
:1028780008B54FF40061024801F097FC08BD00BF9D
:1028880000040048F0B587B000240594029403279B
:10289800019701260096514B22462146022010F04E
:1028A8006DFA029405230193022500954C4B2246AC
:1028B8002146284610F062FA029401970096494B87
:1028C80022462146284610F059FA05A9204605F067
:1028D800A1F9059B1A0EC3F307210291C3F307431D
:1028E80001930092404B22462146284610F046FAB2
:1028F80005A9304605F08EF9059B1A0ED9B2039149
:10290800C3F307210291C3F3074301930092374BA6
:1029180022462146284610F031FA0094344B2246CC
:102928004FF4FA71334810F01DFD0094324B2246E3
:102938004FF4FA71314810F015FD0094304B3246CF
:102948004FF4FA712F4810F00DFD2046FEF724FDD4
:10295800002840D1002400942B4B22464FF4FA6102
:102968002A4810F0FFFC2A4A2146012010F0FAFB01
:10297800284A2146022010F0F5FB274A2146042068
:1029880010F0F0FB254A2146082010F0EBFB00F080
:1029980067F82349234805F0FDF8234804F0D8FFD9
:1029A800184810F097FD214A2146102010F0DAFB54
:1029B80021461F4B187804F015FE1E4D00941E4B3F
:1029C80022461E490968284610F0CCFC284610F01B
:1029D80081FD07B0F0BDFEF7BDFDBBE7C83E0108AD
:1029E800EC3E0108103F0108343F0108583F010838
:1029F8008D24000870030020792400085803002063
:102A080079280008400300203524000880040020AD
:102A1800F9740008A926000871260008D5250008C1
:102A280000000301240000200C0000207121000890
:102A3800700000209804002081220008080000206F
:102A480008B5022802D0402805D008BD002108207A
:102A580010F0BEFAF9E70021042010F0B9FAF4E703
:102A6800074B00221A605A609A60DA6001225A60A5
:102A78002121596040F2211159601A60704700BF46
:102A8800B404002000487047B40400202DE9F04148
:102A980088B00024039404940594069407944FF096
:102AA800B043DA6C42F00202DA64DA6C02F0020235
:102AB8000292029ADA6C42F00402DA64DB6C03F0E8
:102AC80004030193019B4FF480760396012304933A
:102AD800032306930D4D03A9284601F011FA4FF47C
:102AE8000058CDF80C800A4F03A9384601F008FABF
:102AF80022464146384601F053FB224631462846D5
:102B080001F04EFB204608B0BDE8F0810004004803
:102B18000008004808B503280FD8DFE800F00210C5
:102B28001D2A00224FF48071184801F039FB002259
:102B38004FF40051164801F033FB002008BD012274
:102B48004FF48071114801F02BFB00224FF4005123
:102B58000F4801F025FBF0E700224FF480710B4885
:102B680001F01EFB01224FF40051094801F018FB47
:102B7800E3E700224FF48071044801F011FB0122C1
:102B88004FF40051024801F00BFBD6E7000400485F
:102B98000008004802207047002070470120704755
:102BA80008B90F2070471620704700000D48854669
:102BB80000F025F80C480D490D4A002302E0D458CE
:102BC800C4500433C4188C42F9D30A4A0A4C00236F
:102BD80001E013600432A242FBD310F08BFEFEF733
:102BE80002FDFEE7008000200000002020010020F8
:102BF800E849010820010020D0140020FEE77047B2
:102C080010B5032000F074FD01F070FC064B18604D
:102C18000F20FEF795FD10B10124204610BD044693
:102C2800FEF78CFDF9E700BF74000020034B1B780A
:102C3800034A11680B441360704700BF78000020F6
:102C4800C4040020014BD3F8900570470070FF1FA3
:102C5800014BD3F8940570470070FF1F014BD3F860
:102C6800980570470070FF1F024A536843F001033C
:102C780053607047002004E0024A536843F002039F
:102C880053607047002004E0024A536843F004038D
:102C980053607047002004E030B583B000230193EF
:102CA800002800F006810446836DBBB12268936852
:102CB80013F0805F1FD1936823F0104323F01703AC
:102CC80043F0805393607C4B1B689B097B4AA2FBB3
:102CD80003239B0901335B00019309E0FEF704F924
:102CE8000023E36584F85430E0E7019B013B01933E
:102CF800019B002BF9D12268936813F0805F40F0A4
:102D08009A80A36D43F01003A365E36D43F00103BC
:102D1800E3650120936813F0040300D00123A16D3B
:102D280011F0100F40F0BE80002B40F0BB80A36D67
:102D380023F4817343F00203A365936813F0010F32
:102D48004FD1A368217E43EA8133617E43EAC133D0
:102D5800A57E43EA4533216B09B14FF480510B43FB
:102D6800E1680B432169002967DB4FF400110B432D
:102D780094F82C1043EA410394F8201001295FD0FD
:102D8800616A21B101F4E071A56A29430B43D16856
:102D980021F4FE3121F4FF711943D160636803F017
:102DA8004043E26C1A4394F83C10012955D021683D
:102DB8000D69434B2B4013430B616368B3F1404FDC
:102DC8000FD0B3F1804F0CD0B3F1004F09D03D497B
:102DD800D1F8082722F4701203F470131343C1F8D2
:102DE80008372168636B4A6922F0070213434B6175
:102DF8002268A16B536923F0700343EA01135361FE
:102E08002369002B33D12268936A63F00F0393621E
:102E180023685B6903F00703626B9A4239D0A36D9C
:102E280023F0120343F01003A365E36D43F001039D
:102E3800E36501203BE000206CE721F0004196E7C4
:102E480015B943F480339BE7A16D41F02001A165DA
:102E5800E16D41F00101E16592E7216C0B43616C82
:102E68000B43A16C0B431A4342F001029FE7B3F5F1
:102E7800001FCDD121688B6AE369013B9B0003F0F9
:102E88001C036FF00F0202FA03F3226E13438B62E6
:102E9800BEE70023E365A36D23F0030343F00103BA
:102EA800A36504E0A36D43F01003A365012003B0FC
:102EB80030BD0120FBE700BF74000020632D3E05F4
:102EC80002FCFF1F00200140F8B504460D46466984
:102ED800082E05D00368DB6813F0010F1ED1042605
:102EE800FEF7D6FD074623681A6832421CD1B5F1B1
:102EF800FF3FF8D0FEF7CCFDC31BAB4201D8002D35
:102F0800F1D123681B683342EDD1A36D43F004036C
:102F1800A365002384F85430032028E0836D43F030
:102F280020038365012022E0A26D42F40072A265AD
:102F3800DA6812F4406F15D1A27E9AB91A6812F0B5
:102F4800080F0FD09A6812F0040F11D15A6822F0B6
:102F58000C025A60A36D23F4807323F0010343F03D
:102F68000103A365207E60B923680C221A60F8BDAE
:102F7800A36D43F02003A365E36D43F00103E3650C
:102F8800F0E70020F3E70368186C704770B483B06B
:102F980000220192046990F85420012A00F003816C
:102FA8000346012280F854200268906810F0040F4C
:102FB8000AD09A6D42F020029A650120002283F817
:102FC800542003B070BC70474868022800F09C8009
:102FD800B4F1004F27D0754DAC4224D01C6E00F0E0
:102FE8001F000F25854024EA05050C68C4F3110667
:102FF800002E31D1C4F3846484402C431C664C6891
:10300800A0080130DD69A84213D80D68906A04F061
:103018001F040F26A64020EA0600C5F38365A540D5
:103028002843906205E00C68906AC4F311042043B9
:1030380090621C680D688A68606920EA052002EAC7
:10304800052222F07C4222F0FF02024362610A68F4
:10305800002A09DB0020B1E794FAA4F414B1B4FA09
:1030680084F4C9E72024C7E75149D1F8080700F0DC
:10307800E071504CA24207D04F4CA24226D04F4C90
:10308800A24232D0002099E710F4000FF4D141F4A5
:1030980000014748D0F8082722F0E0721143C0F831
:1030A8000817474A126892094649A1FB0212920979
:1030B800013202EB42029200019202E0019A013AC7
:1030C8000192019A002AF9D1002077E710F0807F59
:1030D800D5D141F080713648D0F8082722F0E07247
:1030E8001143C0F80817002068E710F4800F58D182
:1030F80041F480022E48D0F8081721F0E0710A4305
:10310800C0F80827002059E7B4F1004F02D027483B
:10311800844206D10C68906AC4F3110420EA0400C2
:1031280090620A68002A01DB002047E72049D1F8AD
:1031380008172048824207D01F48824213D01F48F0
:1031480082421FD0002039E701F0A07100F1104041
:1031580000F58830D0F8082722F0E0721143C0F853
:10316800081700202AE701F4400200F1084000F5A2
:103178006040D0F8081721F0E0710A43C0F808272A
:1031880000201BE701F0C07200F10C4000F5803010
:10319800D0F8081721F0E0710A43C0F8082700208A
:1031A8000CE700200AE702200BE700BF04000080BC
:1031B80000200140001000B0004000B8002000B41A
:1031C80074000020632D3E0538B503689A6812F034
:1031D800040F2AD004469A6812F0020F07D19A68A1
:1031E80022F0004222F0170242F010029A60FEF725
:1031F8004FFC054623689B6813F0040F13D0FEF7B5
:1032080047FC431B022BF5D923689B6813F0040F76
:10321800F0D0A36D43F01003A365E36D43F0010301
:10322800E365012002E0002000E0002038BD000036
:1032380030B583B00023019303689A6812F0010F38
:103248005BD1044699682E4A114217D19A6822F038
:10325800004222F0170242F001029A60294BD3F88B
:10326800083713F4000F19D0274B1B689B09274A0E
:10327800A2FB03239B09013301930CE0836D43F008
:1032880010038365C36D43F00103C365012035E076
:10329800019B013B0193019B002BF9D1637E012B1C
:1032A80001D100202AE0FEF7F3FB054623681A68DF
:1032B80012F0010F1FD19A6812F0010F07D19A6816
:1032C80022F0004222F0170242F001029A60FEF753
:1032D800DFFB401B0228E9D923681B6813F0010FA4
:1032E800E4D1A36D43F01003A365E36D43F001033C
:1032F800E365012002E0002000E0002003B030BDBB
:10330800170000800020014074000020632D3E0556
:1033180003689B6813F0040F28D110B5044690F891
:103328005430012B24D0012380F85430FFF780FF5C
:10333800C0B9A36D23F4706323F0010343F48073D1
:10334800A3650023E36522681C21116084F85430CA
:103358002268936823F0004323F0170343F0040323
:10336800936010BD002384F85430FAE702207047B8
:103378000220F6E738B504460268936813F00203A2
:1033880000D00123916811F0010F39D0002B39D1F9
:10339800936803F00503012B09D0A36D43F01003D4
:1033A800A365E36D43F00103E365012029E0936819
:1033B80023F0004323F0170343F0020393602368CC
:1033C80003221A60FEF764FB054623689B6813F026
:1033D800010F13D0FEF75CFB401B0228F5D92368C8
:1033E8009B6813F0010FF0D0A36D43F01003A365A1
:1033F800E36D43F00103E365012002E0002000E0F3
:10340800002038BD0020FCE770B5002856D00446DF
:10341800836D43F002038365FFF7D6FE0646002856
:103428003DD02268536823F4677323F00303536085
:10343800236840F29F321A602268D168204B0B4003
:10344800D3602268136923F04043136122685369EB
:1034580023F0070353612268136A03F0F023136211
:103468002268536A03F0F02353622268D36A03F098
:10347800F023D36223689A6A00259D62114AD2F824
:10348800083723F0FE73C2F808372046FDF742FDDF
:103498002566E565A56584F85450304670BD20461C
:1034A800FFF768FF064608B90123A36522689368F9
:1034B80023F0104323F017039360B2E70126ECE7EB
:1034C80000023E830020014090F85430012B19D0AF
:1034D80010B50446012380F85430FFF775FE18B183
:1034E800002384F8543010BD2046FFF743FF00281E
:1034F800F6D1A36D23F4807323F0010343F0010395
:10350800A365EDE702207047F0B583B0002301936F
:1035180090F85430012B00F094800446012380F881
:103528005430FFF727FF054623689A6812F0010216
:1035380009D0A36D43F01003A365002384F8543029
:10354800284603B0F0BDA16D21F4817141F002015C
:10355800A165DE6826F4FF4626F07C063604360CA4
:10356800D96821F4004121F00301D960104605E033
:10357800D3F8B43003F07F0318440132072A1ED869
:1035880021688B6823F0004323F0170343F00043BE
:103598008B60236899680029EADA019B013301935B
:1035A800019BB3F52E3FF4D3A36D23F0120343F030
:1035B8001003A365002384F854300125C0E7B0FB4D
:1035C800F2F02268936823F0004323F0170343F0D6
:1035D800010393602268D2F8B43023F07F031843C4
:1035E800C2F8B4002268936823F0004323F017035D
:1035F80043F002039360FEF74BFA074623689A6884
:1036080012F0010F09D1DA683243DA60A36D23F0B2
:10361800030343F00103A3658FE7FEF739FAC31BE1
:10362800022BEBD923689B6813F0010FE6D0A36D3A
:1036380043F01003A365E36D43F00103E36501253F
:103648007EE702257CE70000002807DB00F01F0268
:10365800400901239340024A42F82030704700BFD6
:1036680000E100E000280CDB00F01F024009012304
:1036780093402030034A42F82030BFF34F8FBFF306
:103688006F8F704700E100E0002808DB0901C9B22C
:1036980000F1604000F5614080F80013704700F0C9
:1036A8000F000901C9B2014B1954704714ED00E02D
:1036B80000B500F00700C0F1070CBCF1040F28BFEB
:1036C8004FF0040C031D062B0FD9C31E4FF0FF3E0D
:1036D8000EFA0CF021EA000199400EFA03FE22EAE4
:1036E8000E0241EA02005DF804FB0023EEE7000049
:1036F800074AD36823F4E0631B041B0C000200F4A0
:10370800E060034343F0BF6343F40033D360704782
:1037180000ED00E010B50446054BD868C0F3022060
:10372800FFF7C6FF01462046FFF7AEFF10BD00BFFA
:1037380000ED00E008B5FFF787FF08BD08B5FFF703
:1037480091FF08BD10B4C46CD0F850C0C4F804C0D0
:10375800446D24B1846DD0F85CC0C4F804C0446CD6
:1037680004F01C0C012404FA0CF4D0F840C0CCF886
:103778000440046863608368102B05D0036899606F
:103788000368DA6010BC704703689A600368D96000
:10379800F8E700000368144A934216D8426C22F0F6
:1037A800030202F1804202F502328264DBB2083B76
:1037B8000E4AA2FB03231B090D4AC26403F01F0330
:1037C800012202FA03F303657047426C22F00301F9
:1037D800084A0A448264DBB2083B044AA2FB03237A
:1037E8001B090733E8E700BF07040240CDCCCCCC67
:1037F800800802401C080240436803F07F03074A20
:103808001A4492004265064A8265013B03F00303AD
:10381800012202FA03F3C365704700BF3F8200101C
:1038280040090240002860D010B504460268304BB9
:103838009A4242D82F4B13442F49A1FB03131B096B
:103848009B0043642D4B0364022384F825301368DE
:1038580023F4FF4323F07003136021680A68A36808
:10386800E06803432069034360690343A069034395
:10387800E0690343206A034313430B602046FFF7C4
:1038880089FFA368B3F5804F22D06368A26C03F068
:103898007F031360E36C226D5A606368013B032B5E
:1038A80019D900236365A365E3650020E06301235C
:1038B80084F8253084F8240010BD114B13440E49B8
:1038C800A1FB03131B099B0043640E4B0364BBE776
:1038D80000236360D9E72046FFF78EFF636D00225F
:1038E8001A60A36DE26D5A60DFE70120704700BFE0
:1038F80007040240F8FFFDBFCDCCCCCC000002404D
:10390800F8FBFDBF0004024000284BD038B5044640
:103918000268136823F0010313600268224B9A427D
:103928002CD8224B13442249A1FB03131B099B00EB
:103938004364204B036400251560636C03F01C028C
:10394800216C012393404B602046FFF723FFA36CB3
:103958001D60E36C226D5A606368013B032B18D924
:1039680000206065A065E065E06220636063A06395
:10397800E06384F8250084F8240038BD0E4B134416
:103988000B49A1FB03131B099B0043640B4B036406
:10399800D1E72046FFF730FF636D1D60A36DE26D30
:1039A8005A60DDE70120704707040240F8FFFDBFB9
:1039B800CDCCCCCC00000240F8FBFDBF0004024097
:1039C80038B5044690F82400012843D0012084F833
:1039D800240094F82500C0B2012806D08023E363B0
:1039E800002384F82430012038BD022084F8250003
:1039F8000020E0632568286820F001002860204640
:103A0800FFF7A0FE236BD3B12268136843F00E03BF
:103A18001360A36C1A6812F4803F03D01A6842F44A
:103A280080721A60636D1BB11A6842F480721A6062
:103A38002268136843F0010313600020D4E722686A
:103A4800136823F0040313602268136843F00A0321
:103A58001360DEE70220C7E70346002834D090F859
:103A68002520D2B2022A06D00422C263002280F89E
:103A780024200120704701680A6822F00E020A60BB
:103A8800816C0A6822F480720A6001680A6822F070
:103A980001020A60426C02F01C01006C01228A409B
:103AA8004260DA6C196D51605A6D32B1116821F4B7
:103AB800807111609A6DD96D5160012283F82520BB
:103AC800002083F8240070470120704708B590F85B
:103AD8002530DBB2022B03D00423C363012008BDC9
:103AE8000268136823F00E0313600268136823F05A
:103AF80001031360826C136823F480731360436CB2
:103B080003F01C02016C012393404B60C36C026DEF
:103B18005A60436D33B11A6822F480721A60836D5B
:103B2800C26D5A60012380F82530002380F82430C4
:103B3800836B13B198470020D1E70020CFE700003E
:103B480038B5036C196804682568436C03F01C03D6
:103B580004229A400A4215D015F0040F12D02368A7
:103B680013F0200F03D1236823F004032360436C70
:103B780003F01C02016C042393404B60036B03B1F8
:103B8800984738BD02229A400A4228D015F0020F01
:103B980025D0236813F0200F06D1236823F00A03E9
:103BA8002360012380F8253002681C4B9A420ED905
:103BB800436C03F01C0202239340194A536000230C
:103BC80080F82430C36A002BDBD09847D9E7436CD0
:103BD80003F01C0202239340124A5360EFE70822C5
:103BE80002FA03F30B42CCD015F0080FC9D02368B2
:103BF80023F00E032360436C03F01C03016C0122C5
:103C080002FA03F34B60C26380F82520002380F892
:103C18002430436B002BB4D09847B2E780000240B1
:103C2800000402400000024078B103681A6811F0ED
:103C3800100F04D011F4801F04D042F480121A60CF
:103C48000020704722F48012F9E701207047000035
:103C580010B4054C616941F0010161610260BFF374
:103C68006F8F436010BC7047004000580C4A53697E
:103C780043F480235361EFF3108C72B6402351F85C
:103C8800042B40F8042B013B13F0FF03F7D1044B3E
:103C98001B6913F4803FFAD18CF31088704700BF7A
:103CA80000400058094B5B69002B01DB002070477E
:103CB800064B074A9A6002F188329A605B69002BCA
:103CC80001DB002070470120704700BF004000580A
:103CD80023016745054B5A6942F000425A615B6906
:103CE800002B01DB0120704700207047004000587E
:103CF80038B50546FDF7CCFE04461B4B1B6913F48B
:103D0800803F06D0FDF7C4FE001BA842F5D3032070
:103D180038BD154B1B6913F0010F15D123F47053EF
:103D280023F005031B041B0C0BB10F4A1361ABB93D
:103D38000D4B1B6913F4802F14D0FDF7A9FE001B4F
:103D4800A842F5D30320E3E7074A0121116123F4D0
:103D5800705323F005031B041B0CE5E7034A53606B
:103D68000120D5E70020D3E700400058C804002010
:103D7800F8B51F46154B1B78012B25D004460D4678
:103D88001646124B01221A7000225A604FF47A70BC
:103D9800FFF7AEFF70B9012C10D031462846FFF767
:103DA80065FF4FF47A70FFF7A3FF094A536923EAC6
:103DB80004035361054B00221A70F8BD32463B4696
:103DC8002846FFF745FFECE70220F6E7C804002085
:103DD80000400058034A536943F4803343F0040316
:103DE8005361704700400058184B1B6803F4007378
:103DF800012B06D0154B1B6803F48063012B12D0EE
:103E08007047124B1A6822F400721A601A6842F45A
:103E180000621A601A6822F400621A601A6842F492
:103E280000721A60E6E7094B1A6822F480621A6089
:103E38001A6842F480521A601A6822F480521A6092
:103E48001A6842F480621A60DAE700BF004000583E
:103E5800034A536923F47E7323F0020353617047C6
:103E680000400058054A536923F47E7343EAC000B2
:103E780040F4803040F00200506170470040005824
:103E8800F8B51E4B1B78012B35D005460F461B4B4A
:103E980001221A7000225A604FF47A70FFF728FF47
:103EA800064618BB2B68042B13D04FF0FF333B603A
:103EB8006C686B68AA681344A34213D92046FFF7BD
:103EC800D1FF4FF47A70FFF713FF064648B9013463
:103ED800EFE7FFF77FFF4FF47A70FFF709FF064619
:103EE80002E03C60FFF7B4FFFFF77EFF034B0022C0
:103EF8001A703046F8BD0226FBE700BFC804002050
:103F080070B5002369E085685E000324B44025EAA3
:103F18000405CC68B4402C438460456825EA0C0548
:103F28004C68C4F300149C402C43446066E0DD08F0
:103F3800083550F8254003F0070C4FEA8C0C4FF079
:103F48000F0E0EFA0CFE24EA0E0E0C6904FA0CF49D
:103F580044EA0E0440F8254067E0022400E000240B
:103F680004FA0EF42C430CF1020C4B4D45F82C408E
:103F78004A4C2568D44325EA0206D1F804C01CF44B
:103F8800801F01D042EA0506444D2E606D6804EAA0
:103F98000506D1F804C01CF4001F01D042EA05064A
:103FA8003E4D6E60D5F8805004EA0506D1F804C08D
:103FB8001CF4803F01D042EA0506384DC5F8806000
:103FC800D5F884502C404E6816F4003F01D042EAE0
:103FD8000504324AC2F8844001330A6832FA03F40D
:103FE80058D04FF0010C0CFA03FC1CEA0202F3D083
:103FF8004C6804F00304013C012C84D94C6804F09B
:104008000304032C0CD0C4685D004FF0030C0CFAB9
:1040180005FC24EA0C0C8C68AC4044EA0C04C4602F
:104028004C6804F00304022C81D004684FEA430E64
:104038004FF0030C0CFA0EFC24EA0C0C4C6804F04C
:10404800030404FA0EF444EA0C0404604C6814F403
:10405800403FC1D04FEA930C0CF102050E4C54F8C6
:10406800255003F0030E4FEA8E0E072404FA0EF4CF
:1040780025EA0405B0F1904F3FF471AF084CA04217
:1040880006D004F58064A0423FF467AF072467E7D1
:10409800012465E770BD00BF00000140000800581A
:1040A80000040048002331FA03F271D0F0B52EE085
:1040B800022500E0002505FA0CF5A54249D0046860
:1040C8005D004FF0030C0CFA05FC44EA0C04046094
:1040D8004FEAD30E0EF1080E50F82E4003F00706F3
:1040E800B6000F25B54024EA050440F82E40846840
:1040F80024EA0C048460446824EA02024260C2682C
:1041080022EA0C02C260013331FA03F23FD00122E5
:104118009A4012EA0107F6D09E08B51C1D4C54F8C7
:10412800254003F0030C4FEA8C0C4FF0070E0EFAF3
:104138000CFE0EEA0404B0F1904FBBD0164DA84215
:1041480005D005F58065A842B2D00725B3E701255B
:10415800B1E7124CD4F8805025EA0705C4F880501E
:10416800D4F8845025EA0705C4F88450256825EA60
:1041780007052560656825EA07056560054D02366F
:1041880055F8264024EA0E0445F8264097E7F0BD86
:10419800704700BF000001400004004800080058B4
:1041A8000AB18161704781627047436901EA03027D
:1041B80021EA030141EA02418161704708B5054BD4
:1041C800DB68034200D108BD024BD860FEF738FC1B
:1041D800F9E700BF00080058024A136843F48073E7
:1041E800136070470004005810B50C46A0B90F4B77
:1041F8005B6913F4007F0AD10D4A136923F00403A5
:104208001361012C10D040BF20BF20BF10BD00F0AB
:1042180021F80028F0D0F9E7044B5B6913F4007F1C
:10422800EAD100F00FF8E7E730BFEFE700040058E5
:1042380000ED00E0024B186800F4C060704700BF52
:1042480000040058024A136843F48043136070471F
:10425800000400580F4A136823F4804313600E4B80
:104268001B68322202FB03F30C4AA2FB03239B0CBC
:1042780000E0013B074A526912F4007F01D0002B8D
:10428800F7D1044B5B6913F4007F01D1002070471C
:1042980003207047000400587400002083DE1B438D
:1042A8000C4A136823F0070343F0020313600A4A19
:1042B800136943F004031361012808D040BF20BFED
:1042C80020BF054A136923F004031361704730BF08
:1042D800F7E700BF0004005800ED00E030B589B0F2
:1042E80004468C462A4B93E803000690ADF81C1050
:1042F80003F1080292E803000490ADF8141001AD30
:10430800103393E8070085E80700BCF5007F07D065
:10431800002314E008AA02EB830353F81C5C1EE098
:104328000023022B08D808AA02EB430232F8082C13
:10433800A242EFD20133F4E7002510E00133022B4B
:104348000CD808AA02EB430232F8102CA242F5D38B
:1043580008AA02EB830353F81C5C00E000250D4A11
:10436800136823F007032B431360FDF791FB044602
:10437800084B1B6803F00703AB4206D0FDF788FB28
:10438800001B0228F4D9032000E0002009B030BD4A
:10439800603A01080040005810B5C0F303100C4BF8
:1043A80053F820404FF0B043D3F8083103F00F031F
:1043B800084A52F82330B4FBF3F4FFF73BFF0146F9
:1043C800054BA3FB0434A00CFFF788FF10BD00BF0A
:1043D800B43F01081440010883DE1B434FF0B0438B
:1043E8009968DB6803F0030311F00C010AD00C296B
:1043F80006D0042947D008293BD00022104626E0E1
:10440800012BF6D14FF0B0431B6813F008030DD011
:104418004FF0B0431B6813F0080324D14FF0B042AB
:10442800D2F894202E4A52F823200EE04FF0B042E2
:10443800126812F0080F12D14FF0B043D3F894303D
:10444800C3F30323264A52F82320D1B100204FF0AA
:10445800B0439B6803F00C030C2B1AD070474FF045
:10446800B0421268EEE74FF0B0431B68C3F3031382
:10447800D8E74FF0B0431A6812F4801206D11948F1
:10448800E5E71046E3E700221748E0E70022164870
:10449800DDE74FF0B043DB6803F00303022B09D0DC
:1044A800032B08D14FF0B0431B6813F4801F15D1BC
:1044B8000C4A00E00C4A4FF0B041CB68C3F3062326
:1044C80003FB02F2CB68C3F302130133B2FBF3F22E
:1044D800C868400F0130B2FBF0F0BFE7024AEAE7D4
:1044E800B43F01080048E8010024F40008B5FFF7CC
:1044F80075FF4FF0B0439B68C3F30313024A52F8A9
:104508002330B0FBF3F008BD14400108002800F088
:104518001183F8B504464FF0B0439D6805F00C05CB
:10452800DE6806F00306036813F0200F2AD0002D7A
:1045380065D00C2D61D0236A002B00F0BF804FF0AE
:10454800B042136843F001031360FDF7A1FA074670
:104558004FF0B0431B6813F0020F00F0A7804FF034
:10456800B0431A6842F008021A601A6822F0F00292
:10457800A16A0A431A60616A5A6822F47F4242EAD1
:1045880001225A60236813F0010F00F0B580082D4E
:1045980000F0AE800C2D00F0A8804FF0B0421368F8
:1045A80023F48013A1680B4313606368B3F5803F5D
:1045B80000F0C480B3F5041F00F0C5804FF0B0438D
:1045C8001A6822F480321A601A6822F400121A60FB
:1045D8006368002B00F0C280FDF75AFA07464FF0D7
:1045E800B0431B6813F4003F40F08680FDF750FA93
:1045F800C01B6428F3D90320A9E2012E9BD1236AAA
:10460800002B00F09982A06A4FF0B0431B6813F0AA
:10461800080F29D04FF0B0431B6803F0F00398420D
:104628002AD9FFF7B9FE002840F088824FF0B0433E
:104638001A6842F008021A601A6822F0F002A16AA9
:104648000A431A60616A5A6822F47F4242EA0122E8
:104658005A60FFF74BFFBA4B1860BA4B1868FDF762
:104668006FF800288ED072E24FF0B043D3F8943040
:104678001B0903F0F003D2E74FF0B0431A6842F089
:1046880008021A601A6822F0F002A16A0A431A6046
:10469800616A5A6822F47F4242EA01225A60A06A9B
:1046A800FFF77AFE0028D4D0012050E2FDF7F0F998
:1046B800C01B02287FF64CAF032048E24FF0B042FF
:1046C800136823F001031360FDF7E2F907464FF082
:1046D800B0431B6813F0020F3FF454AFFDF7D8F94D
:1046E800C01B0228F3D9032031E2032E7FF455AF13
:1046F8006368002B00F02482236813F0020F56D061
:10470800042D3DD00C2D39D02369002B00F08A8070
:104718004FF0B042136843F480731360FDF7B8F9A3
:1047280006464FF0B0431B6813F4806F36D1FDF78F
:10473800AFF9801B0228F4D9032008E2136843F478
:104748008033136044E74FF0B0431A6842F4001214
:104758001A601A6842F480321A6039E7FDF798F94E
:1047680007464FF0B0431B6813F4003FC4D0FDF771
:104778008FF9C01B6428F4D90320E8E1022EC3D1C5
:104788002369002B00F0DE8161694FF0B042536865
:1047980023F0FE4343EA0163536008E061694FF088
:1047A800B042536823F0FE4343EA01635360236831
:1047B80013F0080F7ED0A369002B62D04FF0B043EE
:1047C800D3F89430E16903F01002914211D003F05C
:1047D8000302022A00F0B88113F0010F38D14FF01C
:1047E800B042D2F8943023F01003E1690B43C2F8C9
:1047F80094304FF0B042D2F8943043F00103C2F83D
:104808009430FDF745F906464FF0B043D3F894309D
:1048180013F0020F4ED1FDF73BF9801B1128F3D995
:10482800032094E14FF0B042136823F480731360BF
:10483800FDF72EF906464FF0B0431B6813F4806F5E
:10484800B5D0FDF725F9801B0228F4D903207EE1B5
:104858004FF0B042D2F8943023F00103C2F89430FC
:10486800FDF716F906464FF0B043D3F8943013F02D
:10487800020FB4D0FDF70CF9801B1128F3D90320DF
:1048880065E14FF0B042D2F8943023F00103C2F84A
:104898009430FDF7FDF806464FF0B043D3F8943056
:1048A80013F0020F06D0FDF7F3F8801B1128F3D997
:1048B80003204CE1236813F0040F00F0B880224B6A
:1048C8001B6813F4807F10D1FFF786FCFDF7E0F832
:1048D80006461D4B1B6813F4807F06D1FDF7D8F8F8
:1048E800801B0228F5D9032031E1E368002B68D04A
:1048F800852B01D0052B07D14FF0B042D2F890306C
:1049080043F00403C2F89030FDF7C2F806464FF0B2
:10491800B042D2F8903043F00103C2F890304FF023
:10492800B043D3F8903013F0020F0FD1FDF7B0F871
:10493800801B41F288339842F1D9032007E100BF78
:10494800740000207C00002000040058E368812BDC
:1049580001D0852B1AD1FDF79BF806464FF0B042DF
:10496800D2F8903043F08003C2F890304FF0B04353
:10497800D3F8903013F4006F59D1FDF789F8801BF4
:1049880041F288339842F1D90320E0E0FDF780F83E
:1049980006464FF0B042D2F8903023F08003C2F8B8
:1049A80090304FF0B043D3F8903013F4006F3ED0FE
:1049B800FDF76EF8801B41F288339842F1D9032045
:1049C800C5E0FDF765F806464FF0B042D2F89030E2
:1049D80023F08003C2F890304FF0B043D3F8903002
:1049E80013F4006F08D0FDF753F8801B41F28833A9
:1049F8009842F1D90320AAE0FDF74AF806464FF09D
:104A0800B042D2F8903023F00103C2F890304FF052
:104A1800B043D3F8903013F0020F08D0FDF738F800
:104A2800801B41F288339842F1D903208FE0E36A72
:104A3800002B00F08B800C2D60D0022B16D04FF08D
:104A4800B042136823F080731360FDF721F8044621
:104A58004FF0B0431B6813F0007F48D14FF0B042CD
:104A6800D168414B0B40D360002070E04FF0B0425A
:104A7800136823F080731360FDF70AF805464FF0BA
:104A8800B0431B6813F0007F2AD14FF0B042D368BF
:104A980036491940236B606B0343A06B43EA00233C
:104AA800E06B0343206C0343606C03431943D160FC
:104AB800136843F080731360D36843F08053D36066
:104AC800FCF7E6FF04464FF0B0431B6813F0007F85
:104AD8003ED1FCF7DDFF001B0A28F4D9032036E09D
:104AE800FCF7D6FF401B0A28C9D903202FE0FCF7A2
:104AF800CFFF001B0A28ABD9032028E0012B29D0BF
:104B08004FF0B043DB6803F00301226B914223D1DD
:104B180003F07002616B8A4220D103F4FE42A16B5C
:104B2800B2EB012F1CD103F06043626C934219D1A0
:104B380000200CE001207047012008E0012006E079
:104B4800012004E0012002E0012000E00020F8BD7F
:104B58000020FCE70120FAE70120F8E70120F6E74A
:104B68000120F4E70120F2E7FCFFFEEE8C80C11182
:104B7800002800F0278170B50C460546934B1B684A
:104B880003F007038B422DD32B6813F0020F3FD19C
:104B98002B6813F0200F53D12B6813F0400F6AD104
:104BA8002B6813F0040F40F083802B6813F0080F74
:104BB80040F097802B6813F0010F00F0DE806B68DF
:104BC800022B00F0A880032B00F0AD80002B40F0F2
:104BD800B2804FF0B042126812F0020F40F0B1807C
:104BE8000120EEE0794A136823F007030B431360B2
:104BF800FCF74EFF0646754B1B6803F00703A342FC
:104C0800C2D0FCF745FF801B0228F4D90320D8E066
:104C1800AB684FF0B0418A6822F0F00213438B6012
:104C2800FCF736FF06464FF0B0439B6813F4803F0D
:104C3800AED1FCF72DFF801B0228F4D90320C0E079
:104C48006B694FF0B041D1F8082122F0F00213430C
:104C5800C1F80831FCF71CFF06464FF0B043D3F803
:104C6800083113F4003F97D1FCF712FF801B02288C
:104C7800F3D90320A5E0A9694FF0B042D2F8083172
:104C880023F00F0343EA1113C2F80831FCF700FFC1
:104C980006464FF0B043D3F8083113F4803F7FF451
:104CA8007FAFFCF7F5FE801B0228F2D9032088E0CD
:104CB800EB684FF0B0418A6822F4E06213438B60DE
:104CC800FCF7E6FE06464FF0B0439B6813F4003F3E
:104CD8007FF46BAFFCF7DCFE801B0228F3D90320BE
:104CE8006FE029694FF0B042936823F4605343EAB8
:104CF800C1039360FCF7CCFE06464FF0B0439B68B7
:104D080013F4802F7FF456AFFCF7C2FE801B0228F5
:104D1800F3D9032055E04FF0B042126812F4003F77
:104D28000FD101204DE04FF0B042126812F0007F21
:104D380007D1012045E04FF0B042126812F4806FAD
:104D480042D04FF0B0418A6822F0030213438B60CF
:104D5800FCF79EFE06464FF0B0439B6803F00C0339
:104D68006A68B3EB820F08D0FCF792FE801B41F211
:104D780088339842EFD9032023E0144B1B6803F0D3
:104D88000703A34215D9114A136823F007032343E5
:104D98001360FCF77DFE05460C4B1B6803F0070308
:104DA800A34206D0FCF774FE401B0228F4D9032066
:104DB80007E0FFF79BFB064B1860064B1868FCF7EB
:104DC800BFFC70BD012070470120FAE70040005881
:104DD800740000207C00002008B5FFF787FB4FF027
:104DE800B0439B68C3F30223024A52F82330D840E9
:104DF80008BD00BFF43F010808B5FFF777FB4FF087
:104E0800B0439B68C3F3C223024A52F82330D84008
:104E180008BD00BFF43F010820B3034611B310B426
:104E28004F2202606F2202604FF0B040826802F0A9
:104E38000C045C6002F0F0049C6002F4E064DC6046
:104E480002F460521A61D0F8082102F0F0005861AB
:104E58001201D2B29A61044B1B6803F007030B607E
:104E680010BC7047704700BF004000584FF0B04179
:104E7800D1F88830020902F47F2223EA02030001F4
:104E880000F47F200343C1F88830704770B50446AA
:104E9800036813F4803F40F0AA800025236813F0CC
:104EA800010F0AD062684FF0B041D1F8883023EA88
:104EB800124392B21343C1F88830236813F0020FEB
:104EC8000AD0A2684FF0B041D1F8883023EA1243E3
:104ED80092B21343C1F88830236813F0200F09D029
:104EE80023694FF0B041D1F8882022F4406213437F
:104EF800C1F88830236813F4007F0CD0206A4FF083
:104F0800B041D1F88830020C120423EA020343EAC4
:104F18000043C1F88830236813F4806F0CD0606AAE
:104F28004FF0B041D1F88830020C120423EA020392
:104F380043EA0043C1F88830236813F4006F0CD0AB
:104F4800A06A4FF0B041D1F88830020C120423EA6D
:104F5800020343EA0043C1F88830236813F0400F86
:104F680040F09D80236813F0800F40F09C802368F8
:104F780013F4807F40F09B80236813F0100F0ED04D
:104F8800E3684FF0B041D1F8882022F4407213430F
:104F9800C1F88830E368B3F5807F00F08C8023681F
:104FA80013F4004F0FD0236B4FF0B041D1F8882095
:104FB80022F040421343C1F88830236B1BB9CB68F9
:104FC80043F08073CB60236813F4804F0DD0E36AFD
:104FD8004FF0B041D1F8882022F040521343C1F875
:104FE8008830E36AB3F1005F6AD0284670BDFFF7E6
:104FF800F3F8FCF74DFD0546344B1B6813F4807F2E
:1050080006D1FCF745FD401B0228F5D9032500E031
:105018000025002D7FF442AF4FF0B043D3F8903015
:1050280003F44073626B9A4224D04FF0B043D3F834
:10503800902022F44072D3F8901041F48031C3F8E4
:105048009010D3F8901021F48031C3F89010C3F871
:10505800902012F0020F0FD1002D7FF41FAF636B69
:105068004FF0B041D1F8902022F440721343C1F8B8
:10507800903013E70022ECE7FCF70AFD06464FF0F4
:10508800B043D3F8903013F0020FE5D1FCF700FDE0
:10509800801B41F288339842F1D90325DCE7606927
:1050A800FFF7E4FE5EE7A069FFF7E0FE5FE7E0696F
:1050B800FFF7DCFE60E7CB6843F08073CB606EE7F8
:1050C800CB6843F48033CB608FE700BF00040058FF
:1050D800034690F82C20012A35D0012280F82C2094
:1050E800022280F82D20194ACA20506253205062AB
:1050F800B1F5807F18D0154A916921F40851916162
:10510800D16C21F00041D164196B21F002011963BF
:105118000221D1650D4AFF215162012283F82D2019
:10512800002083F82C007047916921F4885191611F
:10513800516C21F000415164196B21F00101196390
:105148000121D165E6E70220704700BF0028004032
:1051580038B504460D4B5D6D036B1D4015F0010F0E
:1051680006D115F0020F09D1012384F82D3038BD7E
:10517800064B0122DA65FCF769FEF2E7034B0222CF
:10518800DA65204600F0EEF9EEE700BF002800409F
:1051980010B50B4AD36823F02003D360FCF778FCE2
:1051A8000446074BDB6813F0200F07D1FCF770FCAF
:1051B800001BB0F57A7FF4D9032000E0002010BD71
:1051C8000028004070B5114BDB6813F0400F02D087
:1051D8000024204670BD06460C4AD36843F080037D
:1051E800D360FCF755FC05460024084BDB6813F038
:1051F800400FEED1032CECD0FCF74AFC431BB3F56F
:105208007A7FF2D9032486F82D40EEE70028004083
:1052180010B50446104BDA6822F08002DA609B6908
:1052280013F0200F06D1FFF7B3FF98B1032084F8DD
:105238002D000FE0084A936923F020039361FFF7DC
:10524800A7FF10B1032084F82D00034A936943F0A7
:105258002003936110BD00BF00280040002855D0EE
:1052680038B5044690F82D3063B1022384F82D3008
:10527800274BDB6813F0100F09D00020012384F8B6
:105288002D3038BD80F82C30FCF7F8F9EDE7204BCD
:10529800CA225A6253225A622046FFF793FF18B176
:1052A8001B4BFF225A62ECE7194B9A6922F08E6277
:1052B80022F040029A619969626820690243A069F4
:1052C80002430A439A61E268A16842EA01421A610C
:1052D800DA6822F4F852616AA06A01430A43DA6084
:1052E8002046FFF795FF18B1094BFF225A62C8E71D
:1052F80007498B6923F06043226AE5692A43656997
:105308002A4313438B61FF234B62B7E701207047A1
:1053180000280040002302E001330A38C0B20928FF
:10532800FAD81B01DBB218437047000090F82C3004
:10533800012B00F0B0802DE9F04105460C46012311
:1053480080F82C30022380F82D30544BDE6806F4A8
:105358004076B6F5807F43D012BB9B6913F0400FAF
:1053680001D10023CB70D4F814802078FFF7D2FF46
:1053780007046078FFF7CEFF47EA0027A078FFF719
:10538800C9FF0743E37847EA835794F82400FFF7F7
:10539800C1FF47EA0060236A184348EA000020E09A
:1053A8004869B0F1803F09D0B0F5000F06D03B4BFB
:1053B8009B6913F0400F01D10023CB7022786378EA
:1053C8001B0243EA0243A2781343E27843EA82537A
:1053D80094F8242043EA0263226A1343184300E046
:1053E80000202E4BCA225A6253225A62A36AB3F58E
:1053F800807F2AD0294B9A6922F408529A610222A6
:10540800DA65B6F5807F40D0244B9864A269DA64E7
:105418006268224B5A672A6B42F002022A639A6931
:1054280042F408529A611E4AD2F8803043F400339D
:10543800C2F88030194BFF225A62012385F82D30BB
:10544800002085F82C00BDE8F081144B9A6922F4FD
:1054580088529A610122DA65B6F5807F0FD00F4B2A
:105468001864A2695A6462680C4B1A672A6B42F086
:1054780001022A639A6942F488529A61D3E7A369C0
:10548800E2691343054A5364EDE7A369E2691343EC
:10549800024AD364BCE70220704700BF00280040DE
:1054A8000008005890F82C30012B17D0012180F803
:1054B8002C10022380F82D30094BCA225A6253223D
:1054C8005A629A6942F020029A61FF225A6280F871
:1054D8002D10002380F82C301846704702207047A2
:1054E8000028004090F82C30012B20D010B4012166
:1054F80080F82C10022380F82D300E4BCA225A62F5
:1055080053225A629A6942F080029A610A4CD4F88E
:10551800802042F48022C4F88020FF225A6280F85A
:105528002D10002380F82C30184610BC704702203C
:10553800704700BF002800400008005810B5044616
:10554800074B5B6D13F0400F03D1012384F82D3016
:1055580010BD034B4022DA65FCF77CFCF5E700BF81
:10556800002800407047890001F1804101F5314170
:105578000A607047890001F1804101F531410868EE
:1055880070470000074B1A6822F040021A6040F486
:10559800417018604FF4B8525A601A6842F04002DD
:1055A8001A6070470000015830B583B000285DD0FC
:1055B8000446837903F0FF050BB1032D0BD10023BB
:1055C80063712046FCF774F9294AD2F8903043F405
:1055D8008053C2F8903085B1264B4FF400629A612F
:1055E80000252068FFF7CEFF012323710023A36065
:1055F8000123A371284603B030BD0223A3714FF0E5
:10560800B042D2F8943023F40043C2F894301A4BD5
:105618001B68C3EBC303C3F34C43642202FB03F3CD
:10562800019314E00125A560124BD3F8902042F4B1
:105638000042C3F890209A6842F400629A604FF4DE
:1056480000629A61002DD3D1CBE7002BECD0019BEF
:10565800002BE7D0019B013B01934FF0B043D3F8F7
:10566800943013F48043F0D00123EEE70125C1E71D
:1056780000080058000400587400002082B0024658
:105688001A4B1B68C3EBC303C3F34C43642000FBF2
:1056980003F30193019B4BB1019B013B0193144B15
:1056A8009B6813F0020FF5D0002001E00120906004
:1056B8000F4B19730D4B1B68C3EBC303C3F34C4368
:1056C800642101FB03F30193019B43B1019B013B5F
:1056D8000193074B9B6813F0010FF5D001E00120FF
:1056E8009060034BDB6802B0704700BF7400002075
:1056F8000000015882B002461C4B1B68C3EBC30371
:10570800C3F34C43642000FB03F30193019B4BB1AB
:10571800019B013B0193164B9B6813F0020FF5D0D8
:10572800002001E001209060114B4FF0FF0C83F83E
:105738000CC00E4B1B68C3EBC303C3F34C434FF0C1
:10574800640C0CFB03F30193019B43B1019B013BE8
:105758000193074B9B6813F0010FF5D001E001207E
:105768009060034BDB680B7002B070477400002038
:105778000000015882B0134B1B6803EB4303C3F3CB
:105788004B43642202FB03F3019306E00223836088
:10579800012002B07047134212D00B4B5B6913F023
:1057A800040300D00123019A002AEFD0019A013A9C
:1057B8000192054A526912F00202ECD00122EAE78E
:1057C8000020E6E7740000200004005800B583B00C
:1057D8000379012B04D0FFF7CDFF03B05DF804FB7C
:1057E8000D4B1B6803EB4303C3F34F3301930B4A81
:1057F800D2F8903023F40043C2F89030019B013B6B
:105808000193019B002BF9D1044AD2F8903043F45C
:105818000043C2F89030DEE774000020000400580E
:105828002DE9F041054680795FFA80F8B8F1010F5B
:105838003ED10C4617461E466B79012B3BD00123FF
:105848006B710223AB712846FFF7C0FF1B4AD2F8E1
:10585800903023F40043C2F890300D212846FFF71A
:105868000DFF210A2846FFF709FFE1B22846FFF796
:1058780005FF002405E0395D2846FFF7FFFE0134E7
:10588800A4B2B442F7D30D4AD2F8903043F400439F
:10589800C2F890302846FFF76DFFAB680BB94FF0A0
:1058A80000080123AB7100236B714046BDE8F0810D
:1058B8004FF00208F9E74FF00208F6E70004005835
:1058C8002DE9F041064680795FFA80F8B8F1010FBA
:1058D80041D10C4615461F467379012B3ED0012352
:1058E80073713046FFF772FF1E4AD2F8903023F4E6
:1058F8000043C2F890301D213046FFF7BFFE210A51
:105908003046FFF7BBFEE1B23046FFF7B7FE002195
:105918003046FFF7B3FE002406E029463046FFF77D
:10592800E9FE01350134A4B2BC42F6D30D4AD2F8DF
:10593800903043F40043C2F890303046FFF71AFF26
:10594800B3680BB94FF000080123B37100237371DA
:105958004046BDE8F0814FF00208F9E74FF0020831
:10596800F6E700BF000400582DE9F84305468079A2
:105978005FFA80F9B9F1010F43D1884617461E46F0
:105988006B79012B40D001236B712846FFF71EFF6E
:10599800B8F1840F05D0B8F1940F02D000232B7111
:1059A80001E001232B711A4AD2F8903023F4004306
:1059B800C2F8903041462846FFF760FE002405E013
:1059C800395D2846FFF75AFE0134A4B2B442F7D332
:1059D8000F4AD2F8903043F40043C2F89030B8F13F
:1059E800840F0AD1AB680BB94FF000090123AB71E2
:1059F80000236B714846BDE8F8832846FFF7BAFED6
:105A0800F0E74FF00209F5E74FF00209F2E700BFAF
:105A1800000400582DE9F041064680795FFA80F8C5
:105A2800B8F1010F39D10C4615461F467379012B81
:105A380036D0012373713046FFF7C8FE1A4AD2F8F0
:105A4800903023F40043C2F8903021463046FFF7E7
:105A580015FE00213046FFF711FE002406E0294616
:105A68003046FFF747FE01350134A4B2BC42F6D3F5
:105A78000D4AD2F8903043F40043C2F890303046D3
:105A8800FFF778FEB3680BB94FF000080123B37134
:105A9800002373714046BDE8F0814FF00208F9E732
:105AA8004FF00208F6E700BF0004005830B583B095
:105AB80005460023ADF80430022301AA1221FFF79E
:105AC800A9FF9DF804309DF8054044EA032424B258
